:020000040800F2
:1000000090060020D5000008B9140008BB140008B1
:1000100000000000000000000000000000000000E0
:10002000000000000000000000000000BD140008F7
:100030000000000000000000BF140008C114000808
:10004000E7000008E7000008E7000008E7000008F4
:10005000E7000008E7000008B1420008E7000008D8
:10006000E7000008E7000008F51400081115000873
:10007000E7000008E7000008E7000008E7000008C4
:10008000E7000008E7000008E7000008E7000008B4
:10009000E7000008E7000008E7000008E7000008A4
:1000A000E7000008E7000008E700000895150008D1
:1000B0009715000899150008E7000008E7000008F8
:1000C0000348854605F096FB0048004719130008D1
:1000D000900600200448804704480047FEE7FEE7FA
:1000E000FEE7FEE7FEE7FEE7B1130008C1000008E7
:1000F00001684D4A1140016000210160416081604A
:10010000C1604A49494A0839904202D148680F22E1
:1001100005E0464A1432904204D14868F022104368
:1001200048607047414A2832904203D148680F2204
:100130001202F4E73D4A3C32904203D148680F2254
:100140001203ECE7394A5032904203D148680F223B
:100150001204E4E7354A6432904203D148680F2222
:100160001205DCE7314A78329042DAD148680F2232
:100170001206D4E730B503682D4A0C6A13408A682A
:100180004D6922430C692C4322438C692243CC697C
:1001900022434C6A22438C6A22431A430260CA6893
:1001A00042600A6882604968C16030BD0021016018
:1001B00041608160C160016141618161C161016231
:1001C0004162816270470029016802D00122114317
:1001D00001E0154A11400160704741607047406876
:1001E00080B27047002A026801D00A4300E08A43C7
:1001F0000260704701460D4A0020083A12680A4220
:1002000000D001207047094908394860704701460D
:10021000064A0020083A12680A4200D001207047BE
:100220000249083948607047FEFF0000080002409C
:100230000F80FFFF30482F4901600021416081603D
:10024000C1602E494161704710B583792A4902681F
:10025000002B26D00B6893430B604A6803689A43CF
:100260004A600279521813680468234313608A684D
:1002700003689A438A60CA6803689A43CA604279ED
:10028000102A05D051180A68006802430A6010BDA0
:100290008A6803681A438A60CA6800680243CA60B1
:1002A00010BD0079401801689143016010BD002124
:1002B000016001710C224271817170470E490A6917
:1002C00002430A6170470C4A0146526900200A4203
:1002D00000D001207047084948617047064A01462E
:1002E000526900200A4200D001207047024948614B
:1002F000704700000000940F00040140FFFF6B00F6
:10030000092110B5C906884202D101214C0404E03C
:100310005049884209D101210402204600F0FBFA2D
:100320000021204600F0F7FA10BD4B49884202D167
:1003300001210402F1E74949884202D101210C055B
:10034000EBE74749884202D101214402E5E74549EC
:100350008842E9D101218C05DFE7F0B500220325B1
:1003600001230C6893401C409C422AD10C79012C3B
:1003700001D0022C12D1876854002E46A640B74304
:1003800087604E79A64084682643866084889C43B3
:10039000848084888B7993401C4384800668530052
:1003A0002C469C40A64306600E7907689E403E435B
:1003B0000660C668A643C660CC799C40C3681C43EF
:1003C000C460521C102ACBD3F0BD27490160002124
:1003D0000171012242718171C1717047012208B51A
:1003E00012040A430092C261C1610099C161C169EE
:1003F000C069009008BD0246128A00200A4200D05F
:1004000001207047008A70470246928A00200A4203
:1004100000D001207047808A704781617047018554
:100420007047002A01D08161704701857047818241
:1004300070474B07DB0E9A40C90810B589000818B1
:10044000016A0F249C40A1430162016A11430162C9
:1004500010BD00000004004800080048000C0048DF
:100460000010004800140048FFFF000030B58278FB
:1004700001240178002A15D08B08174A9B009A188E
:1004800013688907C90EFF258D40AB434578AD073A
:100490002D0E8D401D4315600078C006C00E8440AF
:1004A0000E4804E0C806C00E84400C48803004604A
:1004B00030BD0B4A0029116901D0014300E081439E
:1004C00011617047042207490428086902D090434B
:1004D000086170471043FBE700E400E000E100E042
:1004E00000ED00E000E000E0F74801680122114360
:1004F00001604168F54A114041600168F44A1140C9
:1005000001600168012292049143016041683F2229
:10051000120491434160C16A09090901C162016B7A
:10052000FF22543291430163416B49084900416302
:10053000002181607047E44900228A70887070470A
:1005400003460020E04A59090CD001290CD00229A9
:100550000CD0516BDA06D20E012393400B4200D02F
:10056000012070471168F5E7116AF3E7516AF1E776
:1005700018B500200524240300901120FFF7E0FFA8
:100580000099491C0091A14201D00028F5D011200A
:10059000FFF7D6FF002800D0012018BDCA4A116815
:1005A000F8239943C000084310607047C6490028EB
:1005B000086802D00122104301E0400840000860B2
:1005C0007047C14A516BF8239943C00008435063F8
:1005D0007047BD490028486B02D00122104301E05A
:1005E0004008400048637047B74904220028486B20
:1005F00001D0904300E0104348637047B2490A6A53
:10060000520852000A620A6A04239A430A620A6A7A
:1006100002430A627047AC490A6A18239A430A6285
:100620000A6A02430A627047A7490028486A02D052
:100630000122104301E0400840004862704710B5B5
:10064000A14A53687B24E403A343536053680843DF
:100650000343536010BD01229B491206002808681D
:1006600001D0104300E09043086070470122964992
:1006700012040028486B01D0104300E09043486307
:100680007047914AD16A090909010143D162704753
:1006900001228D49D2040028086801D0104300E0EF
:1006A000904308607047884B5A681202120A00068D
:1006B0000843104358607047834A5168890889008D
:1006C000014351607047804840680C2108407047E2
:1006D0007D4A5168F02399430143516070477A4A3B
:1006E000516807231B0299430143516070477649C3
:1006F0004A6801239B039A434A604A6883B21A43BB
:100700004A600A6B8B159A430A630A6B000C02431A
:100710000A6370476C490A6B40239A430A630A6B69
:1007200002430A63704768490A6B10239A430A63BD
:100730000A6B02430A637047020F6349012A0A6B7E
:1007400007D003231B049A430A630A6B02430A631C
:10075000704792089200F7E75B490A6B80239A433F
:100760000A630A6B02430A637047F8B5564E0446A3
:10077000716800200C22574D114005D0042903D088
:10078000082903D00C2918D0256018E0716870681A
:1007900003228902D2030F0F1040BF1C002809D08A
:1007A000F06A0107090F2846491C04F03DFB784315
:1007B000206004E048487843FAE7484921607168BE
:1007C000474F0906090F7B5C21680A46DA406260E0
:1007D00073685B055B0FFB5CDA40A260336BDB0583
:1007E00001D4404B05E073685B0401D4530800E07A
:1007F0009308E360336B5F063B4B03D43A4F1237E9
:10080000276100E02361376BFF0601D4656100E0DA
:100810006161376BBF070ED0376BBF07BF0F012F6A
:100820000BD0376BBF07BF0F022F08D0376BFF43CA
:10083000BF0706D006E0A26104E0A16102E0A36167
:1008400000E0A561376BBF03BF0F0FD0326B92037F
:10085000920F012A0CD0316B8903890F022909D02C
:10086000316B8903890F032906D006E0E26104E0B9
:10087000E16102E0E36100E0E561316B090600D46B
:1008800016482062F8BD10490A6A02430A6270479E
:100890000D490028144A086A01D0104300E0904333
:1008A000086270470122084912040028086A01D032
:1008B000104300E0904308627047034A00295169E1
:1008C00014D0014313E00000001002400CB8FF08F0
:1008D000FFFFF6FE00127A0000093D00006CDC020A
:1008E00000000020809FD5000080000081435161FE
:1008F0007047244A0029916901D0014300E08143F7
:10090000916170471F4A0029D16901D0014300E07D
:100910008143D16170471B4A0029916A01D001438C
:1009200000E0814391627047164A0029D16801D0E6
:10093000014300E08143D1607047124A00291169E8
:1009400001D0014300E08143116170470D4A002945
:10095000517A01D0014300E0814351727047094848
:10096000416A01221206114341627047054A01465D
:10097000926800200A4200D0012070470149887225
:100980007047000000100240244801688907890F61
:10099000016000218160C16001614161816982154E
:1009A0001143816170471D4A11688908890001431C
:1009B00011607047194A0029116801D0014300E015
:1009C000814311607047154A0029116801D0014325
:1009D00000E08143116070478A0710B5120F0F23A2
:1009E00093408C080D49A40061188C689C438C606E
:1009F0008B68904003438B6010BD08498A690243AD
:100A00008A617047054900208969C90500D5012020
:100A1000704702498A6902438A61704700000140B9
:100A2000F74910B5884209D101218C032046FFF710
:100A30007BFF00212046FFF777FF10BDF149884278
:100A400002D101214C0404E0EF49884209D101217F
:100A50008C042046FFF771FF00212046FFF76DFF51
:100A600010BDEA498842FBD10121CC04F1E730B541
:100A70000446006889B00D46400840002060606868
:100A8000032109038843A968014361602068E049A4
:100A9000EA680840696811432A69024311432160EA
:100AA000A06803210902884369690143A16068467F
:100AB000FFF75BFED248844201D1069805E0D14899
:100AC000844201D1079800E002982168090429684E
:100AD00000D5400004F0A8F92A6852088A4200D8DC
:100AE000401C2168090404D50107CA4A490F104077
:100AF0000843A08109B030BD4B21C901016000212C
:100B0000416081600C22C16002614161704710B593
:100B100043680F221202934314C922430C684968A8
:100B20000C4322431A43426010BD00210160416022
:100B30008160C16070470029016802D00122114321
:100B400001E04908490001607047002A026801D0AD
:100B50000A4300E08A43026070470122D203002961
:100B6000016801D0114300E0914301607047012208
:100B7000D2020029816801D0114300E091438160D5
:100B800070470122D2040029416801D0114300E0DE
:100B9000914341607047012292040029416801D0CD
:100BA000114300E0914341607047002A426801D040
:100BB0000A4300E08A43426070470122D2030029C1
:100BC000416801D0114300E0914341607047012228
:100BD000D2050029416801D0114300E091434160F2
:100BE00070474269120E1206426142690A4342612D
:100BF0007047028A120A12020282028A0A430282A1
:100C0000704702220029016801D0114300E091439E
:100C100001607047826803231B059A4382608268E3
:100C20000A4382607047012212050029416801D001
:100C3000114300E0914341607047426803235B0524
:100C40009A43426042680A4342607047C905C90D31
:100C500001857047808CC005C00D70474268120244
:100C6000120A4260426809060A4342607047012244
:100C700052030029016801D0114300E09143016053
:100C8000704702680123DB029A43026002680A434C
:100C900002607047426810239A43426042680A43E8
:100CA00042607047426820239A43426042680A4388
:100CB00042607047012292030029416801D011432C
:100CC00000E091434160704708220029816801D00B
:100CD000114300E0914381607047028AD2B20282E0
:100CE000028A09020A430282704720220029816891
:100CF00001D0114300E09143816070471022002928
:100D0000816801D0114300E091438160704782689F
:100D100007235B049A438260826849040A43826025
:100D2000704742691202120A4261426909060A4387
:100D300042617047826804239A43826082680A4352
:100D40008260704702220029816801D0114300E0CF
:100D5000914381607047012292030029816801D08C
:100D6000114300E091438160704782680123DB03F7
:100D70009A43826082680A438260704702681F2338
:100D80005B059A430260026849050A4302607047A6
:100D900002681F231B049A430260026809040A4385
:100DA00002607047002A826801D00A4300E08A434B
:100DB00082607047826801235B039A438260826885
:100DC0000A438260704710B50B041C0E01238B4050
:100DD000022C02D0032C02D002E0001D00E00830FB
:100DE0000168002A01D0194300E09943016010BD59
:100DF000002A028B01D00A4300E08A430283704735
:100E0000003801400044004000480040004C0040D1
:100E1000F3E9FFFFF0FF0000826801231B039A4300
:100E2000826082680A438260E9E70246D269002054
:100E30000A42E4D00120E2E70162E0E730B50A04AB
:100E4000130E01252A4600248A40012B0ED0022BC6
:100E50000ED08368090C1340C0698D402840002BD8
:100E600002D0002800D00124204630BD0368F1E7FD
:100E70004368EFE7090C01228A400262BFE70000E5
:100E800010B50E487D21C900006803F0CDFF0C4964
:100E9000401E884201D901200CE00A4948610A48F5
:100EA0000722C3691B021B0A4C042343C3610020B1
:100EB00088610A61002800D0FEE710BD1C000020F8
:100EC000FFFFFF0000E000E004ED00E0F0B50121CD
:100ED00095B00846FFF7F1FC01214804FFF7EDFC4F
:100EE00001218803FFF705FD0921CF0601223846BD
:100EF000FFF79FFA01220A213846FFF79AFA0120EC
:100F00004002009002266846067100248471012583
:100F1000C5710321417169463846FFF71EFAA802E0
:100F2000009068460671C57169463846FFF715FAA4
:100F3000E120400213940E900C20494E12900F9421
:100F4000109411940EA93046FFF791FD01228021E3
:100F50003046FFF727FF012242493046FFF733FFB3
:100F600040213046FFF768FF01213046FFF7E3FDDF
:100F70003D4F3846FFF7BCF839480A262830039021
:100F80003A48049010200590802008900696202072
:100F90000B90079400020C9009940A9403A90D94F5
:100FA0003846FFF7E7F8012202213846FFF71AF921
:100FB0006846067204214172857202A8FFF756FA4C
:100FC00015B0F0BD10B504460021FFF7FCF807216D
:100FD0002046FFF702F901212046FFF7F4F810BD83
:100FE00070B50C46054680212846FFF71EFF0028F5
:100FF000F9D021462846FFF729FE70BD10B5184CE0
:1010000020212046FFF711FF0028F9D02046FFF7E6
:1010100021FEC0B210BD70B5154D04468021284692
:10102000FFF703FF0028F9D0E1B22846FFF70EFED4
:10103000204670BDF8B516460D46074600240CE064
:1010400029783846FFF702FE40213846FFF7EDFECB
:101050000028F9D0641CE4B26D1CB442F0D3F8BD92
:1010600000380140050105001C000240100000206E
:10107000004C004010B50022084C03E02146491EF8
:10108000FDD2521C8242F9D310BD002203E0092197
:10109000491EFDD2521C8242F9D370473C28000001
:1010A000F0B5012195B00846FFF707FC01214C047B
:1010B0002046FFF702FC01212046FFF723FC092709
:1010C000FF06012202213846FFF7B3F9012203216E
:1010D0003846FFF7AEF904200090022568460571F6
:1010E000002484710126C671032141716946384686
:1010F000FFF733F90820009068460571C67169460C
:101100003846FFF72AF9E120400213940E900C2094
:101110001F4F12900F94109411940EA93846FFF7A8
:10112000A6FC012240213846FFF73CFE012138464B
:10113000FFF701FD174F3846FEF7DAFF1448079412
:1011400024300390144804900E20069080200890CC
:1011500020200B90000205940C9009940A9403A996
:101160000D943846FFF706F8012202213846FFF7B2
:1011700039F80B21684601724572867202A8FFF7A2
:1011800075F901213846FFF71EF815B0F0BD0000D3
:101190000044004058000240CC000020F0B501217E
:1011A00095B00846FFF789FB0121C804FFF785FBCE
:1011B00001218804FFF7A6FB012204213148FFF733
:1011C00038F9012205212F48FFF733F9102000904C
:1011D000022668460671002484710125C571032723
:1011E000477169462748FFF7B8F820200090684605
:1011F0000671C57169462348FFF7AFF8E120400248
:1012000013940E900C20204E12900F941094119471
:101210000EA93046FFF72BFC01213046FFF78BFC6F
:10122000012240213046FFF7BDFD184E3046FEF743
:101230005FFF1548079424300390154804900E2052
:1012400006908020089020200B90000205940C90BE
:1012500009940A9403A90D943046FEF78BFF0122EE
:1012600002213046FEF7BEFF0B216846017247722D
:10127000857202A8FFF7FAF801213046FEF7A3FFB6
:1012800015B0F0BD00080048004800406C00024066
:10129000DA000020F0B5012189B04804FFF70DFB0A
:1012A0000121C804FFF72EFB0927FF0604220021B5
:1012B0003846FFF7BEF8042201213846FFF7B9F897
:1012C0000125022668460095067100248471C571C7
:1012D0000321417169463846FFF73FF8684600969A
:1012E0000671C57169463846FFF737F8E120079463
:1012F000400203940494059402900C20054C06903F
:1013000002A92046FFF7B3FB01212046FFF713FC9B
:1013100009B0F0BD004C004000F04AF8FFF7B0FD06
:10132000FFF7D4FDFFF7BCFEFFF738FFFFF7B2FF72
:101330001148FFF79FFE02E010A004F095FA00F0BC
:1013400039F9FF28F8D002F0FBFF02E011A004F009
:101350008BFA03F023FB0028F8D003F03BFB7D2041
:10136000C000FFF787FE03F049FB02F077FF0F494B
:1013700001200870FEE70000102700006D70753630
:1013800030353031206E6F7420636F6E6E6563741C
:10139000210D0A006D70753630353032206E6F7455
:1013A00020636F6E6E656374210D0A001A000020C1
:1013B0000CB5384801680122114301604168364A82
:1013C000114041600168354A114001600168012205
:1013D00092049143016041687F22D20391434160AE
:1013E000C16A09090901C162016BFF2254329143AC
:1013F0000163416B2A4A11404163002181600091E1
:101400000191284A112111604168416041684160A1
:10141000416B0122120411434163416B8903FCD5E6
:101420004168890889004160416803221143416095
:101430000CBD70B5174E71680C2001401A481B4C4A
:1014400005D0042903D0082903D00C2920D020601E
:1014500014E07268716803239202DB03150F1940D0
:10146000AD1C002907D0F16A0907090F491C03F0D8
:10147000DBFC6843EBE70E484543256070680B4989
:101480000006000F091D085C2168C140216070BD85
:101490000848DCE7001002400CB8FF80FFFFF6FEB2
:1014A000FEFFFEFF0020024000127A001C00002018
:1014B00000093D00006CDC027047FEE77047704792
:1014C00070B536480078002813D0354D01212846E4
:1014D000FEF779FE334C217860780143A078014310
:1014E00007D001212846FEF76EFE002020706070B4
:1014F000A07070BD10B52020FEF789FE002806D030
:101500001020FEF78DFE00212548FEF75CFE10BD81
:10151000F8B501204003FEF77AFE002803D0012031
:101520000003FEF77DFE01204004FEF770FE012659
:101530001C4F1D4CFF2500280BD03004FEF770FE19
:101540001A4881780C2902D1C178072910D065701A
:10155000A57001204005FEF75AFE002813D0012097
:101560000005FEF75DFE124881780C2906D008E0E0
:1015700081796170C079A0703E70EAE7C17807296F
:1015800002D0E5702571F8BD8179E170C0792071D4
:101590007E70F8BD70477047704700001A00002049
:1015A0001C0002403000002010000020CC00002071
:1015B000DA00002008B500206946087000F063F9E1
:1015C00001236A467521D02000F086FA002801D058
:1015D00085A045E068460078682801D085A03FE0F6
:1015E00001226B21D02000F04FFAFF282BD00722D8
:1015F0001921D02000F048FAFF2826D000221A2115
:10160000D02000F041FAFF2821D008221B21D02051
:1016100000F03AFAFF281CD008221C21D02000F04C
:1016200033FAFF2817D002223721D02000F02CFAFD
:10163000FF2812D001223821D02000F025FAFF28FF
:101640000DD0002008BD6EA00AE070A008E072A0D6
:1016500006E074A004E076A002E078A000E07AA0A2
:1016600004F002F9FF2008BDF0B58BB0012872D05C
:101670000E236A463B21D12000F02EFAFF2869D0C4
:101680006A46108840BA01B272480180528852BA44
:1016900012B2428009926A46928852BA524212B2FB
:1016A000828008926A46D28852BA12B2C2800A92E6
:1016B0006A46128952BA17B207816A46528952BAEB
:1016C00016B246816A46928952BA524215B2858153
:1016D000084603F0C7FE0C21C94303F025FD5D4C0D
:1016E00010342060099803F0BDFE0C21C94303F0BB
:1016F0001BFD6060089803F0B5FE0C21C94303F0A0
:1017000013FDA0600A9803F0BFFE0022524B03F0C5
:1017100031FE524A524B03F013FD03F00AFFE06022
:10172000384603F09FFE4F4F394603F0BFFC20615F
:10173000304603F097FE394603F0B8FC6061284656
:1017400003F090FE394603F0B1FCA06100200BB01D
:10175000F0BD00E043E00E2304AA3B21D02000F0BE
:10176000BBF9FF283BD06A46108A40BA01B239481B
:101770002C380180528A52BA12B2428008926A46CC
:10178000928A52BA12B2828009926A46128B52BA77
:1017900017B207816A46528B52BA16B246816A4620
:1017A000928B52BA15B28581084603F05BFE0C217C
:1017B000C94303F0B9FC274C1C3C2060089803F097
:1017C00051FE0C21C94303F0AFFC6060099803F09F
:1017D00049FE0C21C94303F0A7FCA060A0E722A0AA
:1017E00004F042F8FF20B2E76572726F7220314256
:1017F0000D0A00006572726F722031410D0A0000FF
:101800006572726F722031430D0A00006572726F4B
:10181000722031440D0A00006572726F72203145EA
:101820000D0A00006572726F722031460D0A0000C9
:101830006572726F722031470D0A00006572726F17
:10184000722031480D0A00006572726F72203149B2
:101850000D0A00001401002000407540A4703D0AEC
:10186000D7434240000083426572726F7220314A52
:101870000D0A0000002203E00621491EFDD2521C81
:101880008242F9D370471CB501218804FFF715F88F
:10189000C0200090012069460871887103204871BA
:1018A000AD48FEF75AFD1CBD1CB5802000900120FC
:1018B0006A46107100219171D07103205071694600
:1018C000A548FEF74AFD1CBD1CB5802000900020F5
:1018D00069460871C871032048719F48FEF73DFDB5
:1018E0001CBD10B5FFF7E0FF9B4C80212046FEF7A2
:1018F00094FD40212046FEF790FD0120FFF7BAFF3E
:1019000080212046FEF78BFD0120FFF7B3FF402129
:101910002046FEF784FD10BD10B5FFF7C5FF8E4CC5
:1019200040212046FEF77BFD80212046FEF777FD13
:101930000120FFF79FFF40212046FEF76EFD80212A
:101940002046FEF76AFD0120FFF794FF10BD70B539
:101950000446FFF7A9FF804D002C04D080212846C3
:10196000FEF75BFD03E080212846FEF758FD40218D
:101970002846FEF752FD0120FFF77CFF4021284654
:10198000FEF74DFD0120FFF775FF70BD70B5724D7C
:101990007D24E40080212846FEF73FFDFFF794FFF9
:1019A0000120FFF767FF40212846FEF736FD0120A2
:1019B000FFF760FF0AE0641E2404240C06D0FFF742
:1019C000ABFF66A003F050FFFF2070BD80212846CA
:1019D000FEF711FD0028EED140212846FEF71FFD3D
:1019E000002070BD70B50546FFF75EFF5A4E4021DE
:1019F0003046FEF714FD0024280604D58021304629
:101A0000FEF70BFD03E080213046FEF708FD680677
:101A1000050E0120FFF72EFF40213046FEF7FDFCAA
:101A20000120FFF727FF40213046FEF7F8FC641C39
:101A3000E4B2082CE0D370BD70B50024FFF744FF7A
:101A4000454E002540213046FEF7E9FC0120FFF716
:101A500011FF40213046FEF7E0FC6006040E8021B5
:101A60003046FEF7C8FC002801D0641CE4B2012017
:101A7000FFF700FF6D1CEDB2082DE3D34021304687
:101A8000FEF7CDFC204670BD70B515460E460446E7
:101A9000FFF727FF2046FFF7A5FFFFF777FFFF2897
:101AA00011D03046FFF79EFFFFF770FFFF280CD0E4
:101AB0002846FFF797FFFFF769FFFF2807D0FFF7DA
:101AC0002BFF002070BD28A002E02AA000E02CA07F
:101AD00003F0CAFEFF2070BDF8B51E4615460F463E
:101AE0000446FFF7FEFE2046FFF77CFFFFF74EFFA0
:101AF000FF2813D03846FFF775FFFFF747FFFF2891
:101B00000ED0FFF7EEFE641CE0B2FFF76BFFFFF7AD
:101B10003DFFFF2806D00024761E11E01BA002E046
:101B20001DA000E01FA003F09FFEFF20F8BDFFF7FF
:101B300083FF28700020FFF70AFF641CE4B26D1CCD
:101B4000B442F4DBFFF778FF28700120FFF7FFFEB7
:101B5000FFF7E2FE0020F8BD000400486572726FD6
:101B6000722032410D0A00006572726F722032429B
:101B70000D0A00006572726F722032430D0A000078
:101B80006572726F722032440D0A00006572726FC6
:101B9000722032460D0A00006572726F7220324761
:101BA0000D0A00006572726F722032480D0A000043
:101BB000F8B50021FF4E08460D460C46FE4A376830
:101BC000535E9C460223D35E9E460423D35E002FC1
:101BD00011D031464F68F94E790062467252724612
:101BE00014367252324614325352F2497F1C4F60FF
:101BF0000A2F0FD011E0012737604A00EF4F6646E9
:101C0000BE5276461437BE521437491CBB520A29BD
:101C1000F3D302E0E74900224A60E84E002114367F
:101C200037461437E54B4A009B5E491C1818B35ED3
:101C3000BA5E5D1914190A29F4D303F013FCE04FBE
:101C4000394603F033FADD4E3C363060284603F067
:101C500009FC394603F02AFA7060204603F002FCC2
:101C6000394603F023FAD74CB060206903F04DFCED
:101C7000D54ED64F32463B4603F014FB03F059FCD9
:101C8000CE4D48352860606903F03FFC32463B4644
:101C900003F008FB03F04DFC6860A06903F035FC1D
:101CA00032463B4603F0FEFA03F043FCA860F8BD61
:101CB000FFB5C04C91B01F46606A03F026FCC44AD1
:101CC000C44B03F0EFFA05460E46384603F01DFC00
:101CD000C14AC24B03F0E6FA33462A4603F030FA13
:101CE00003F027FC05466062A06A03F00EFCB84AC8
:101CF000B84B03F0D7FA06460F461A9803F005FCD6
:101D0000B54AB64B03F0CEFA32463B4603F018FA1A
:101D100003F00FFC0646A062E06A03F0F6FBAC4A53
:101D2000AC4B03F0BFFA074600911B9803F0EDFBA4
:101D3000A94AAA4B03F0B6FA3A46009B03F000FA10
:101D400003F0F7FB07463946E06203F072F93146CB
:101D50000190084603F06DF929460090084603F00B
:101D600068F9009903F00CF9019903F009F903F0FF
:101D7000CCFB04F0CDF803F0DCFB014600902846D4
:101D800003F094F90D903046009903F08FF902901A
:101D90003846009903F08AF90F9021690A9107915A
:101DA000A0680390064603F044F96169074605916F
:101DB0000691E0680190054603F03BF9394603F0CF
:101DC00030F9012103F0B0F907460699079803F0AE
:101DD00030F900902946304603F02BF9009903F0C2
:101DE000CFF8012103F0A0F906990C90084603F002
:101DF00020F907990090084603F01BF92946049042
:101E0000084603F016F905463146084603F011F975
:101E1000294603F006F9049903F003F9009903F049
:101E2000AFF805460C990F9803F003F906462946CA
:101E3000029803F0FEF8314603F0F3F8064629460F
:101E40000D9803F0F6F8054639460F9803F0F1F8BF
:101E5000294603F0E6F800903946029803F0E9F8C5
:101E600005460C990D9803F0E4F8294603F0D9F8DB
:101E700002905B49304603F0DCF8A16903F080F87A
:101E80000546A0615649009803F0D3F8E16903F0D4
:101E900077F8E06106905249029803F0CAF8216A87
:101EA00003F06EF8074620624E49304603F0C1F851
:101EB000119903F065F8294603F062F8494D049042
:101EC0002946009803F0B5F8129903F059F80699DD
:101ED00003F056F800902946029803F0AAF81399E7
:101EE00003F04EF8394603F04BF80146029005988E
:101EF00003F09FF8064600990A9803F09AF8054601
:101F000001210198C9074840049903F092F8294635
:101F100003F087F8314603F084F8334903F089F879
:101F2000039903F02DF8A06007460099059803F087
:101F300080F8064602990A9803F07BF80546384671
:101F4000049903F076F8294603F01AF8314603F0B5
:101F500068F8254903F06DF8019903F011F8E06085
:101F600006460499059803F064F805463046029940
:101F700003F05FF801903846009903F05AF8019990
:101F800003F04FF8294602F0FBFF174903F051F820
:101F90000A9902F0F5FF20610546049903F049F81B
:101FA00001903046009903F044F8009038460299B9
:101FB0001CE0000034000020E80000204001002068
:101FC00000002041F800002012E7FAA146DF913F0F
:101FD0005C8FC2F5285CEF3F7B14AE47E17A943FFB
:101FE0006F12033B00007A446F12033A03F021F8AA
:101FF000009902F0C5FF019903F013F83D4903F081
:1020000018F8059902F0BCFF0146606103F011F871
:1020100029460090084603F00CF80546314608466C
:1020200003F007F806463946084603F002F8314641
:1020300002F0A6FF294602F0A3FF009902F0A0FFDC
:1020400003F063FA03F064FF03F073FA07460146F6
:10205000A06803F02BF8A06001903946E06803F017
:1020600025F80646E0603946206903F01FF805466A
:1020700020613946606903F019F807466061012163
:10208000284603F051F82946009002F0D2FF04469A
:1020900003218907304602F0CCFF314602F0C9FF28
:1020A000214602F0BEFF7F21C90502F069FF03F05F
:1020B0002CFA0D4604460121019803F035F831460B
:1020C00002F0B7FF06463946009802F0B2FF3146EB
:1020D00002F056FF03F019FA22462B4603F05CFE8D
:1020E000054A064B03F0DEF803F023FA0449486082
:1020F00015B0F0BD6F12033A6666666666A64C4080
:1021000094010020F8B5FB4900230C46203C0E79D1
:102110005D1E62682168002E0CD0002816D00220B7
:1021200011E01078C97B6B46012202F01AFA0028F0
:102130000FD110E0A67A002E0BD0002806D0607CCC
:1021400000280BD101206B461870EAE7684603703F
:10215000E7E72846F8BD6846007860740020F8BDBF
:1021600038B5E44D0024203D13E02868C27AA2422D
:102170000DD0407DA0420AD008786B46012221464E
:1021800002F048FA002802D00020C04338BD641C89
:10219000E4B269680879A042E7D8002038BD70B57C
:1021A000D44A0B46203A11680024CD7AE443854294
:1021B00006D0497D814203D051680A79824201D814
:1021C000204670BD0C7801460122204602F022FA1A
:1021D00070BD38B5C74D0446E878A04201D1002053
:1021E00038BD002C01D0302000E000206946087086
:1021F000C0482038817C002905D06A461178022227
:1022000011436A461170A978002905D06A461178F1
:10221000802211436A46117001684068097D007888
:102220006B46012202F09DF9002802D00020C04335
:1022300038BDEC70D3E7F8B504464006400F0127DF
:102240000026002802D06846077007E0002C02D064
:102250006846067002E0402069460870A54D6B464E
:10226000203D28680122817C6868007802F079F9B5
:1022700000282BD168460078BF21084028736846A3
:102280000670600602D4042069460870A00605D4D2
:10229000694608780221084369460870E00603D4BD
:1022A0006946087838430870200705D469460878DD
:1022B000382108436946087028686B46C17C686805
:1022C0000122007802F04DF9002803D00020AE7200
:1022D000C043F8BD002C04D0082C02D00020FFF72A
:1022E00078FFAC722E753220FEF7C4FE0020F8BDD8
:1022F000F8B5804E0546203EB07CA84201D10020B2
:10230000F8BD7C4CDF27203C2168606820340979C7
:102310000078002D6B4630D0012202F07BF90028B6
:1023200045D1694608786B4638400870306801220C
:1023300001797068007802F014F9002837D1032081
:10234000FEF798FE022069460870A078002801D0A8
:1023500082200870E078002804D0097830200143FA
:102360006846017030686B46017D70680122007814
:1023700002F0F7F800281AD12EE0012202F04AF903
:10238000002814D1B07A6946C007087803D020210C
:102390000843694600E03840087030686B460179B0
:1023A00070680122007802F0DCF8002802D00020DA
:1023B000C043F8BD0320FEF75DFEA078002800D0E2
:1023C000802069460870E0780028CBD0087830215A
:1023D000084369460870C5E7B57490E7F8B5454D00
:1023E0000026203DA87AF64300287CD000246846C9
:1023F000047028686B46C17B68680122007802F08F
:10240000B0F800286FD128686B46417968680122CE
:10241000007802F0A6F8002865D128686B4601799B
:1024200068680122007802F09CF800285BD13148EE
:10243000007900283AD00C206946087028686B465D
:10244000017968680122007802F08BF8002872D1C7
:10245000C02069460870A87AC00701D0E020087043
:1024600028686B46017968680122007802F079F8E3
:10247000002860D1687C002803D0022069460870DB
:1024800001E06846047028686B46C17B68680122D9
:10249000007802F066F800284DD16846047028687C
:1024A0006B46417968680122007840E00420694663
:1024B000087028686B46017968680122007802F08C
:1024C00050F8002837D1A87C002815D1A87AC00779
:1024D00012D060206946087028686B4601796868E8
:1024E0000122007800E026E002F03BF8002822D12B
:1024F00004E00000840000204020EBE7687C002816
:1025000003D001206946087001E06846047028681D
:102510006B46C17B68680122007802F022F800282F
:1025200009D12868F84B417968680122007802F0E7
:1025300018F8002800D03046F8BDF8B54408F24835
:102540000026103000796400002801D00020F8BD7A
:10255000ED4D103DA87A002809D020402F7C28742A
:10256000A04201D00026F643002C06D102E0002054
:10257000C043F8BD287D00280AD00120FFF7C2FD26
:10258000002C08D0FFF72AFF002804D02F74EEE7B4
:102590000020FFF7B7FD3046F8BD38B5DA4C00250E
:1025A000103CA17AED43002926D0BC2801D301209C
:1025B00010E0622801D302200CE02A2801D3032076
:1025C00008E0142801D3042004E00A2801D30520E0
:1025D00000E0062069460870E07A0978884201D157
:1025E000002038BD20686B46817860680122007841
:1025F00001F0B7FF002801D0284638BD68460078B2
:10260000E072EDE7F8B50446282841D8BE4D002613
:10261000103D002C0DD00120FFF7DBFD2020694686
:1026200001270870012C17D0052C17D84F700520F2
:102630001DE00020FFF7CDFD69460E7007204870B1
:1026400028686B46817C68680222007801F089FF67
:1026500000281DD12E7525E04E70E8E7142C03D814
:10266000022048700A2002E0032048701420FFF77F
:1026700094FF694648786B468001C01D4870286801
:102680000222817C6868007801F06BFF002802D08C
:102690000020C043F8BD0820A8722E732F750020BB
:1026A000FFF74BFF0020F8BDF8B5974D0446103DED
:1026B000A87A0026F64300282CD02846203000793E
:1026C000002827D1287D00280AD0002C05D0282CEE
:1026D00003D8E0B2FFF796FF28E00020FFF792FF53
:1026E0007D27FF00042C01D2042402E0BC4200D963
:1026F0003C462146384602F097FB6946401E08706A
:1027000028686B46417868680122007801F029FF4B
:10271000002801D03046F8BD684601783846491C8B
:1027200002F082FBE8814008FFF737FF0020F8BD88
:1027300038B5754C0025103CA17AED43002923D013
:10274000022806D0042806D008280DD010281BD156
:102750000CE0002000E00820694608700978607AE3
:10276000C908884204D005E01020F5E71820F3E7F7
:10277000002038BD20686B46C1796068012200786E
:1027800001F0EFFE002801D0284638BD68460078E9
:10279000C0086072ECE738B55B4C0025103CA17AAC
:1027A000ED43002926D0FA280BD0FF38F5380AD09F
:1027B000FF38F53810D07D21C90088421AD1182081
:1027C00002E0002000E00820694608700978207ABD
:1027D000C908884202D003E01020F5E7002038BD88
:1027E00020686B46817960680122007801F0B9FEAB
:1027F000002801D0284638BD68460078C0082072FD
:10280000ECE7FEB5404C802069460870103C20681B
:102810006B46817C60680122007801F0A2FE0027EF
:10282000FF43002831D16420FEF724FC00256846D0
:10283000057020686B46817C60680122007801F099
:1028400090FE0028EED120686B46817D60680622EC
:10285000007801F0DFFE002817D168464079012694
:10286000C007410F6846C078C007800F0143684623
:102870004078C007C00F0143002909D0012905D0C5
:10288000022916D021A002F0EFFF7CE0E67411E0EF
:1028900020686B46C17860680122007801F0BAFEBA
:1028A000002870D1684600780007000F23D0042864
:1028B00025D0E574FF20A072207260720021E072C2
:1028C000C943E1812074A074314626730E4E103640
:1028D000B170F5706575304625750C210A3802F027
:1028E00037FB357175717D20E5840001FFF753FFDB
:1028F000002848D130E00F4802F0B6FF43E00EA0B8
:1029000002F0B2FFC2E7000074000020556E73753C
:1029100070706F7274656420736F6674776172652E
:102920002070726F64756374207265762025642E42
:102930000A000000406C000848616C662073656EF8
:102940007369746976697479207061727420666F36
:10295000756E642E0D0A00000220FFF7E9FE0028C4
:1029600011D12A20FFF719FE00280CD13220FFF7E1
:102970009BFE002807D1FFF7E0FD002803D1FFF7F9
:10298000B7FC002801D03846FEBD0020FFF753FCFD
:102990000020FEBD70477CB50446FA48FA4D817AA6
:1029A0004906490F09D001684068097B00786B46E9
:1029B000062201F02FFE002801D028467CBD684683
:1029C000008840BA20806846408840BA60806846E7
:1029D000808840BAA08000207CBD7CB50446E948D0
:1029E000E94D817A090709D501684068497B00787B
:1029F0006B46062201F00EFE002801D028467CBD61
:102A00006846008840BA20806846408840BA6080A6
:102A10006846808840BAA08000207CBDF8B5D94CBB
:102A20000746A07A0025ED43002809D020686B46B0
:102A3000817B60680222007801F0ECFD002801D063
:102A40002846F8BD68460088646840BA05B2E08848
:102A500002F013FD06460820205E02F003FD044646
:102A6000284602F0FFFC214602F0DBFA314602F074
:102A70001DFBC64902F084FA102102F055FB02F05A
:102A800017FD38600020F8BDF0B585B004006AD0AD
:102A90002068002805D16068002802D1A0680028BD
:102AA00063D0B848032240686B460078114601F0B5
:102AB000B1FD002857D168460078000908300107A9
:102AC000090F684601814078403100090830050748
:102AD0002D0F684645818078000908300607360FBB
:102AE000684686812068400002F0B4F907B2684663
:102AF0000781606829464031400002F0ABF905B219
:102B000068464581A06831464031400002F0A2F994
:102B100004B268469B4E84817068062200786B463A
:102B2000114601F077FD00281DD16B4659881888A1
:102B30004ABA998840BA381849BA1881AA1861184F
:102B40005A81998104121C70587010129870DA70B2
:102B5000081218715971706806220078114601F048
:102B600000FD002801D00020C04305B0F0BD85491C
:102B7000097A002907D0012907D002290AD00329A0
:102B80000BD0002103E0FA2101E0FF21F5310180A3
:102B9000002070477D21C900F9E77D210901F6E792
:102BA000784A517A002908D0012908D0022910D08A
:102BB000032910D00020C0437047022100E0042107
:102BC0000170D17C002902D00178490001700020F9
:102BD00070470821F4E71021F2E700B56949C97A86
:102BE0000B0002F080FE071305070B0D0F111300F9
:102BF000BC2100E062210180002000BD2A21FAE70B
:102C00001421F8E70A21F6E70521F4E70021F2E7AD
:102C10005C4920310979002902D00020C043704767
:102C20005849C98901800020704700210180481E51
:102C300070470020C04370475249097A002908D0E4
:102C4000012908D002290AD003290AD00020C04354
:102C500070474F4900E04F490160002070474E49DE
:102C6000FAE74E49F8E7474A517A002908D0012986
:102C700009D0022911D0032912D00020C043704787
:102C80000121890300E046490180D17C002902D05E
:102C90000188490801800020704701210903F3E7FA
:102CA0000121C902F0E73749097C01700020704713
:102CB0003449897A002900D0012101700020704731
:102CC00038B505462F480024817AE443002909D00D
:102CD00001684068097C00786B46022201F09AFC8A
:102CE000002801D0204638BD6846008840BA2880B8
:102CF000002038BDFFB5234800242030007983B080
:102D00001E462546002858D11E493070887A002872
:102D100053D0087C002850D0420600D502248206F9
:102D200000D5A41CC20600D5A41C000700D5A41D14
:102D300014486B4601684068897A0078022201F0E5
:102D400069FC002839D16846008847BAA7427DD37C
:102D50000C48406841884908B94223D209490078A3
:102D600009686B46497C012201F054FC002824D1FB
:102D700068460078C00615D5FFF730FB0120C04338
:102D800007B0F0BD64000020FFFFFFFF00000C4211
:102D90000000034300008342333303423333834153
:102DA0009C1F0000FE486B4601684068C97A0078A5
:102DB000224601F02FFC002802D00020C043DFE7AC
:102DC0002146384602F030F80C99401E0870002069
:102DD0003070002C4CD0F2496A46087C000710D5B0
:102DE0001088049B40BA18805088049B40BA5880D1
:102DF0009088049B40BA988030780823184330703C
:102E00000625A5420FD0087C40060CD55019437802
:102E1000077818023843039B40BA18803078402363
:102E200018433070AD1CA5420FD0087C80060CD52D
:102E300050194378077818023843039B40BA5880EA
:102E40003078202318433070AD1C00E010E0A5421C
:102E50000ED0087CC0060BD55019417802780802C4
:102E60001043039940BA88803078102108433070AD
:102E7000002085E7F7B50646C94882B020300079C2
:102E80001746002836D0C64DA87A002832D02868C8
:102E90006B46817A68680222007801F0BBFB00284B
:102EA00028D16846008844BAB44202D20020387063
:102EB00020E0686841884908A14211D22968007859
:102EC000497C6B46012201F0A5FB002812D168461F
:102ED0000078C00604D5FFF781FA0120C04344E61C
:102EE0002868F2B2C17A6868039B007801F092FB0F
:102EF000002802D00020C04337E63146204601F0CA
:102F000093FF401E387000202FE6A54920318870BD
:102F100000207047F0B585B00C4605460120694693
:102F2000087000209E4E487030681746817C70689B
:102F30006B460078022201F014FB00287ED1C820E5
:102F4000FEF798F800206946087030686B46C17B30
:102F500070680122007801F004FB0028EED130688F
:102F60006B46417970680122007801F0FAFA002876
:102F7000E4D130686B46817C70680122007801F0F2
:102F8000F0FA0028DAD130686B46C17D7068012202
:102F9000007801F0E6FA0028D0D130686B4601795C
:102FA00070680122007801F0DCFA0028C6D10C20FC
:102FB0006946087030686B460179706801220078B4
:102FC00001F0CFFA0028B9D10F20FEF753F8B06A0C
:102FD0006946407A087030686B46817870680122D3
:102FE000007801F0BEFA002828D1B06A6946007A5C
:102FF000087030686B46417870680122007801F0F3
:10300000B0FA00287BD1B06A002F807A01D0E0218D
:1030100008436946087030686B4681797068012200
:10302000007801F09EFA002869D1002F07D0B06A1D
:10303000C17AE02001436846017003E05FE0182098
:103040006946087030686B46C17970680122007863
:1030500001F087FA002852D1002F02D0C820FEF7D5
:1030600009F840206946087030686B46017970683D
:103070000122007801F075FA002840D178206946D5
:10308000087030686B46417970680122007801F061
:1030900068FA002833D13220FDF7ECFF002768469C
:1030A000077030686B46417970680122007801F042
:1030B00058FA002823D13A486B4601684068897A5B
:1030C0000078022201F0A6FA002818D1684600888C
:1030D0000C2140BA01F0A8FEAF606F602F60A760BE
:1030E0006760C6B227603BE02D486B4601684068C8
:1030F000C97A00780C2201F08DFA002802D0002055
:10310000C04332E56B46188840BA00B298815988AE
:1031100049BA0AB2DA81998849BA09B21982236890
:103120001818206060686B4680186060A0684018BE
:10313000A060D88840BA00B29881198949BA0AB209
:10314000DA81598949BA09B219822B68181828609E
:10315000686880186860A86840187F1CFFB2A86083
:10316000B742C1D328680023C117020C09041143D8
:103170000004832201F082FE3246002301F07EFE2D
:10318000286068680023C117020C09041143000479
:10319000832201F073FE3246002301F06FFE01E04E
:1031A000640000206860A8680023C117020C0904AD
:1031B00011430004832201F061FE3246002301F036
:1031C0005DFEA86020680125C117020C09041143A7
:1031D000ED0200042A46002301F050FE324600238F
:1031E00001F04CFE206060680023C117020C090446
:1031F000114300042A4601F041FE3246002301F04B
:103200003DFE6060A0680023C117020C0904114351
:1032100000042A4601F032FE3246002301F02EFE61
:103220006901A060002801DD401A00E04018A0609C
:1032300000209AE4F8B5FE4C217981421FD0264641
:103240000025203E00281FD06079002819D00020DA
:10325000FEF758FF0020FFF74BF8F08CFFF724FA39
:103260006846057070686B4600780122232101F0E2
:1032700078F901202071FEF745FFFFF7AFF8002035
:10328000F8BD0020C043F8BD0020FEF73BFF307CB6
:103290006946087070686B4600780122232101F0AE
:1032A00060F92571E9E7F3B5E1488DB000790F4683
:1032B000002804D00020FFF7BDFF012500E0002515
:1032C00008A8FFF754FC6846FFF76AFC0AA8FFF756
:1032D00084FC09A8FFF79CFCD54E6946203EB07AD5
:1032E0000B90307C087100240190002239460D9823
:1032F000FFF710FE002802D0641C022CF5DB022C24
:103300001AD00024012205A902A8FFF703FE002815
:1033100002D0641C022CF5DB022C0DD005A9384626
:1033200000F0C1F9C7B202A90D9800F0F0F9C0B2DF
:103330000024002802D002E0002404E00124002F31
:1033400001D102200443FF20307270720021F0721C
:10335000C943F181B0723074012030736846008C2B
:10336000FFF719FA68460078FFF7E2F96846008D22
:10337000FFF713F96846808CFFF796F90B98FEF774
:103380005AFF0198FFF7D9F8002D02D00120FFF76E
:1033900051FF20460FB0F4E4F8B5A64C17000D46D7
:1033A00021D0A34E203EB17A00291CD0010A6A46E2
:1033B0001170C0B25070411970684289914212D8A0
:1033C00031680078097E6B46022201F0CAF80028B5
:1033D00009D13068EAB2417D70683B46007801F05F
:1033E000C0F8002800D02046F8BDF8B5914C170071
:1033F0000D4621D08E4E203EB17A00291CD0010A04
:103400006A461170C0B25070411970684289914289
:1034100012D831680078097E6B46022201F0A1F8CB
:10342000002809D13068EAB2417D70683B460078D7
:1034300001F0F0F8002800D02046F8BDFFB50546A1
:1034400087B07B480590407900283AD10898002839
:1034500037D0002421E0281B102800DD102086B280
:103460000898314607193A462046FFF795FF00288D
:1034700027D16A4631462046FFF7B7FF002820D102
:1034800038463246694601F06EFD002803D001201F
:10349000C0430BB075E4A01984B2AC42DBD30998E9
:1034A0006946000A0874624C09984874203C2068F8
:1034B00004AB817E60680222007801F052F8002897
:1034C00002D00020C043E4E70598012141710A9829
:1034D000E0840020DDE7564909790170002070473B
:1034E0000020C04370470020C0437047FEB50F4620
:1034F00051494F4D140001917ED0FF21490188426E
:1035000001D9FF2605E0202801D2012601E0C004F0
:10351000060E002F00D10127282C6ED846481638F9
:10352000407D00281DD12879002803D00020FFF716
:1035300081FE012028700198FFF719FB3E48801C8E
:10354000FFF72EFB3C48001DFFF747FB3848001FE4
:10355000FFF75EFB38481638817A81770146007C98
:10356000C8770020FEF7CEFD0020FFF74BF80020C3
:103570006946087030486B4616380168406889789B
:103580000078012200F0EDFF002836D14020694686
:10359000087029486B46163801684068C97B007876
:1035A000012200F0DEFF00284FD168460670224E4F
:1035B0004770163E30686B46017A706802220078C8
:1035C00000F0CFFF002840D10520FDF753FD707AB1
:1035D0006946C000C01D087030686B46C1797068CC
:1035E0000122007800F0BDFF00282ED1202069467E
:1035F0000870012C06D001E023E051E0052C03D82F
:10360000012006E0002004E0142C01D8022000E094
:1036100003200006800CC01D487030686B46817C1A
:1036200070680222007800F09CFF00280DD105E0B0
:1036300084000020FFFFFFFF7A000020012070754A
:1036400029E000200A5C002A27D0804CFF2020724D
:1036500060720021E072C943E181A07220740120F0
:103660002073A07FFEF7E7FDE08AFFF794F8207E45
:10367000FFF75EF8608BFEF790FFA08BFFF714F862
:10368000E07FFEF75AFF2878002802D00120FFF7DC
:10369000D1FD002060750020FEBD401C0C28D1D358
:1036A0000020C043FEBDF3B583B00025684600F09E
:1036B00086F8002401270398A600815904988059B0
:1036C000081A00D5404201F0CDFE0F21C94301F098
:1036D0002BFD694689594A00120E0BD001F0E6FC19
:1036E0007F21C90501F09DFC4000594940088842EE
:1036F00005DC07E0574940185749884202D338464D
:10370000A0400543641C032CD5DB2846F9E4F3B53F
:103710004E4881B04068002500786B4603220D2199
:1037200000F078FF002801D00720FEBD6946087828
:103730006F46C006C00E08704878C006C00E4870BC
:103740008878C006C00E887000240199A0000A582D
:1037500002990858101A00D5404201F083FE0F214B
:10376000C94301F0E1FC0646385D00281AD03B4A07
:1037700004E03B49104601F05CFC0246385D401E07
:103780000006000E3855F4D11146304601F08EFC8B
:103790007F21C90501F045FC40002D4940088842C1
:1037A00005DC07E02F4830493018884202D3012059
:1037B000A0400543641C032CC7DB2846FEBDFEB5B4
:1037C000054622486B464068042200780D2100F02F
:1037D00021FF002801D00720FEBD6A46107801AF06
:1037E000C0088108D07889008206920F11436A468A
:1037F000117151780207C90889088900920F114395
:103800006A46517191788007C90889088900800F3C
:10381000014391710024385D002802D01348A600AE
:1038200007E00020A10068500AE0A859104901F003
:1038300000FCA851385D401E0006000E3855F4D13A
:10384000641CE4B2032CE6D30020FEBD640000201B
:10385000295C0F3E666666C19A99D9000000C8418E
:1038600054E3853F0000E0BE0100B2017B14AE3E90
:103870001D5A843F10B50122C8239202FC49FD481D
:10388000FFF7DCFD10BDF0B5044685B0FAA0006876
:103890000290FAA000680390F9A00668F9A0A207B8
:1038A0000568920F02A8815C6F463970E106890FA6
:1038B000435C7B7023069B0FC05CB87003A8825CDE
:1038C0003A71415C7971C05CB8713A460321EE48A7
:1038D000FFF762FD0027FF43002836D1EA4801AA1E
:1038E0000321001DFFF758FD00282ED1610701209C
:1038F00000960195002906DA6A4611780143117095
:10390000117901431171A10606D56A465178014328
:103910005170517901435171E10506D56A4691789C
:103920000143917091790143917111206A460321FD
:103930008001FFF731FD002807D1D34801AA0321F8
:103940000B30FFF729FD002802D0384605B0F0BD46
:10395000CE4804810020F9E7F8B50246CB4801893A
:103960008807000F10584B0700D54042CB069B0F2D
:103970009B00D5588B0600D56D420B069B0F9B0014
:10398000D658C90500D57642C14F394601F093FF9C
:10399000840F89000C432846394601F08CFF850FBF
:1039A00089000D433046394601F085FF860F8900B6
:1039B0000E43200E6946087020144870201288704B
:1039C000CC703D206A4604210001FFF7E5FC00248D
:1039D000E44300280FD1280E694608702814487067
:1039E00028128870CD70F5206A4604218000FFF708
:1039F000D3FC002801D02046F8BD300E694608707F
:103A00003014487030128870CE707B206A460421D2
:103A1000C000FFF7C1FCF8BDF0B585B0044604A8AE
:103A2000FFF721F96846008A460CC70397480189C9
:103A30008807000F20584A0700D54042CA06920F57
:103A40009200A5588A0600D56D420A06920F920090
:103A5000A2580392C90501D551420391C1173A46B4
:103A6000334601F031FA840F89000C432846E917E8
:103A70003A46334601F028FA850F890003980D4332
:103A8000C1173A46334601F01FFA8900800F0843F8
:103A9000210E6A4611702114517021129170D47058
:103AA000290E11712914517129129171D571010ECC
:103AB00011720114517201129172D072A5200C2161
:103AC0008000FFF769FC41E730B5044671A007C8E4
:103AD00085B06B46002507C3ED43C82C16D8214698
:103AE000C82001F0A1F9401E010A6A461173507303
:103AF00003AA02216A48FFF74FFC002806D16A4654
:103B00000C216848FFF748FC002802D0284605B081
:103B100030BD5E4884810020F9E75C4989890180D5
:103B200000207047FEB505465F4E40077ED0192045
:103B3000800181427DD8084601F09FFC5B4901F07D
:103B4000B5FA074601A8FFF72BF868460079022866
:103B500006D004280DD008282BD0102869D131E0D8
:103B60000E21384601F0E0FA01F0BBFC84B2504966
:103B700007E00D21384601F0D7FA01F0B2FC4D49BB
:103B800084B2384601F055FA01F0ABFC210A6A46CE
:103B9000117080B25470010A9170D070E807144619
:103BA00021D0FF200221D530FFF7F6FB002840D1BD
:103BB00011E00C21384601F0B7FA01F092FC84B212
:103BC0003D49DEE70B21384601F0AEFA01F089FCF1
:103BD00084B23A49D5E7FF20A21C02212530FFF725
:103BE000DBFB002825D1A8070FD5FF206A4602215C
:103BF000D930FFF7D1FB00281BD1FF20A21C0221E6
:103C00002930FFF7C9FB002813D1680713D5FF201F
:103C10006A460221DD30FFF7BFFB002809D1FF20F3
:103C2000A21C02212D30FFF7B7FB00E001E00028C5
:103C300001D03046FEBD0020FEBD08B500216A4619
:103C40001170C10701D030211170810704D511789E
:103C50000C2211436A461170400703D510780321E6
:103C600008431070FF2001214930FFF795FB08BD84
:103C7000A85F0008F60B00004CCD6C000CC92C00AE
:103C8000365676002646660026040000A001002075
:103C900009E3CA02FEF2ABC4AAF1DFDFBBAFDFDF8C
:103CA00016020000C10A0000FFFFFFFF00004843AA
:103CB000000040460000C045000040450000C044F0
:103CC00008B500280CD0042800D904206946401EFD
:103CD0000870FF206A4601215030FFF75DFBC6E700
:103CE0000120F3E708B5052101F09EF8010A6A46B4
:103CF00011705070FF200221DF30FFF74DFBB6E757
:103D000008B5052101F090F8010A6A46117050705B
:103D1000FF200221DB30FFF73FFBA8E738B50C4658
:103D20007D21C90001F096F86043010E6A461170CA
:103D30000114517001129170D070FF2004215D3088
:103D4000FFF72AFB38BD08B5052101F06DF8010A1F
:103D50006A4611705070FF2002215B30FFF71CFB98
:103D600085E708B5052101F05FF8010A6A46117080
:103D70005070FF2002215930FFF70EFB77E738B56E
:103D8000FE4D040007D01B206A4604214001FFF7C6
:103D90002CFB002801D0284638BD0098694600BA9F
:103DA000000AC978000208432060002038BD08B529
:103DB000010E6A461170010C5170010A9170D070A9
:103DC0001B2004214001FFF7E7FA50E738B5EB4D1F
:103DD000040007D0F1206A4604218000FFF705FBAC
:103DE000002801D0284638BD0098694600BA000A6C
:103DF000C97800020843142148432060002038BDE0
:103E000008B5142101F010F8010E6A461170010C7A
:103E10005170010A9170D070F12004218000FFF7E9
:103E2000BBFA24E708B5002809D0202069460870AD
:103E300028204870302088703820C87004E0A32201
:103E40000421684601F07DF86A460421CC48FFF75A
:103E5000A3FAFEF7C3FA0AE708B5002809D0C02084
:103E600069460870C2204870C4208870C620C87097
:103E700004E08B220421684601F063F8C0486A46DA
:103E80000421801FFFF788FAFEF7A8FAEFE60EB5C7
:103E90009723DB00002801D0BAA000E0BCA007C82F
:103EA0000292019100906A4609211846FFF774FAC0
:103EB0000EBDFEB50446022069460870CA2048704F
:103EC000E32088700920C8706A4604216820FFF743
:103ED00063FAA32069460870610607D5C0216A46C7
:103EE0005170C8219170C221D17003E069464870B9
:103EF0008870C870E605B10F07D0C4216A461171F9
:103F0000CC215171C621917103E069460871487155
:103F100088716946C8710872487299486A460A21D0
:103F20000930FFF739FAA007D825002803D0202050
:103F30006946087001E06846057091486A460121AB
:103F40001830FFF729FAA00601D5012000E0002073
:103F5000FFF79DFFB00F19D0E00508D5B2206946E4
:103F600008708B204870B62088709B2007E0B02036
:103F70006946087080204870B42088709020C8700E
:103F80007F480A460421001DFFF706FA834BE0072D
:103F900023D0F820694608706A4601211846FFF7C9
:103FA000FBF9FA210720FFF7BDFD0720FFF745FECB
:103FB0000120FFF785FE6420FFF794FEFF20F53017
:103FC000FFF79EFEC8217648FFF7A8FE2820FFF7DE
:103FD000BAFE0A20FFF7C5FE06E0684605706A468D
:103FE00001211846FFF7D8F9A00703D5D920694663
:103FF000087001E0684605706A4601216948FFF7CC
:10400000CBF9600701D5012000E00020FFF724FF75
:10401000E00601D5012000E00020FFF703FF0820A3
:10402000614D20436881FEF7D9F90020A87360062E
:1040300001D50620A873B00F02D0A87B801DA873FD
:104040001420044202D0A87B1030A873A00702D02D
:10405000A87B001DA8730020FEBD5349498901803B
:104060000020704710B551A11AC986B06A461AC21D
:1040700051A11AC90246424805941C380493039181
:10408000012A07D0022A03D00020C04306B010BD89
:104090006A4600E003AA0B21FFF77EF9F6E7FFB5B9
:1040A00089B01646129D0024139A3F480F462C8073
:1040B000807B6946FEF7DEFE002803D00020C04367
:1040C0000DB0F0BD38481421408908423AD000991B
:1040D0006C4609BA0A0AE17812020A433260019971
:1040E000E37909BA090A090219438C4671600299F9
:1040F000E37A09BA090A09021943B160039BE47B18
:104100001BBA1B0A1B022343F360664612143614C3
:1041100009141B145243764349435B439219C9184F
:104120005118F12212068918264A1024914204D30C
:10413000FEF754F900202880C0E72988FF220132C9
:104140001143298041066A4617D511194B780E781C
:104150001B0233435BBA3B80CB788E781B02334320
:104160005BBA7B804B790E791902314349BAB98029
:104170002988082319432980A41D25E0FFFFFFFF9C
:104180009E0A0000B8AAB38DB4980D355D000000FA
:10419000B8AAAAAAB088C3C5C7000000B00800002A
:1041A00009E3CA023D070000A0010020D8B1B9F31D
:1041B0008BA391B609B4D900DAB1B9F38BA391B648
:1041C000DAB4DA0001000002234EC105890F1AD0CB
:1041D00011194B780F781B023B43099F5BBA3B8058
:1041E000CB788F781B023B43099F5BBA7B804B796E
:1041F0000F7919023943099B49BA9980298870239C
:1042000019432980A41D800718D01419E078850966
:1042100081066078AD01890EC00707D0C80849073C
:10422000490F3268491C002A00D090476078000787
:1042300004D57168002901D0A80988470C98FEF7B9
:10424000A9FB00203CE704490860002070470249B0
:104250004860002070470000A001002070B50121D7
:1042600086B04805FCF729FB08240025684602941F
:1042700005730126C67302A92948FCF76EF80121CF
:104280000846FCF736FB03210420FCF7A5FB684633
:104290000094057144718671FBF7D6FF06216846CC
:1042A00001744574867404A8FCF7E0F806B070BD8C
:1042B0007CB50820FCF712F8002830D000F00CFC88
:1042C0000120FDF7D1F917488268416801920091F9
:1042D0000368103007C8FDF7EBFC14491248144A74
:1042E000006888610B4624331068986111480068A3
:1042F000086254681C6201F0DBF801040E4D090EDF
:104300002972E871204601F0D3F80104090EA97161
:1043100068710A49012008700820FBF7E7FF7CBD9F
:1043200000100048F8000020C0000020B00100206C
:1043300094010020A4000020100000203200002082
:104340001CB501218804FCF7B8FA03208002009014
:1043500001206A46107100219171D07103205071C3
:104360006946FD48FBF7F9FF1CBD1CB50120C002E2
:10437000009001206A46107100219171D0710320D4
:1043800050716946F448FBF7E8FF1CBD1CB50120DD
:10439000C0020090002069460871C871032048716E
:1043A000ED48FBF7DAFF1CBD70B5FFF7DEFF012516
:1043B000E94CED0229462046FCF72FF82946204615
:1043C000FCF719F8002812D06E1031462046FCF791
:1043D00024F80120FCF759FE29462046FCF71FF877
:1043E00029462046FCF707F8002801D0002070BDC0
:1043F0000120FCF74AFE31462046FCF710F8012068
:1044000070BD70B5FFF7B1FF0124D34DA402214662
:104410002846FCF704F8660031462846FBF7FFFF04
:104420000120FCF732FE21462846FBF7F6FF314615
:104430002846FBF7F2FF0120FCF727FE70BDF8B518
:104440000024FFF7A3FF0126C34DF602314628469C
:10445000FBF7E3FF0120FCF718FE771039462846EA
:10446000FBF7DBFF07E0641CE4B2322C03D9FFF753
:10447000C8FF0020F8BD0120FCF707FE31462846A2
:10448000FBF7B9FF0028EED139462846FBF7C7FFF6
:104490000120F8BD70B50124AF4DA4022146284685
:1044A000FBF7BDFFFFF761FF61002846FBF7B7FF91
:1044B0000120FCF7EAFD21462846FBF7AEFF01206C
:1044C000FCF7E3FD21462846FBF7A9FF70BD70B558
:1044D0000124A14DA40221462846FBF7A0FFFFF7C7
:1044E00044FF61002846FBF798FF0120FCF7CDFD53
:1044F00021462846FBF791FF0120FCF7C6FD214627
:104500002846FBF78CFF70BDF8B50546FFF72DFF79
:104510000126914FB60231463846FBF780FF002452
:10452000E8098E49384602D0FBF777FF01E0FBF738
:1045300076FF6806050E0120FCF7A7FD31463846D8
:10454000FBF76BFF0120FCF7A0FD31463846FBF777
:1045500066FF0120FCF799FD641CE4B2082CDFD350
:10456000F8BDF8B51D4616460C460746FFF71CFF7A
:1045700000280ED07806000EFFF7C6FFFFF75FFF9A
:10458000002808D02046FFF7BFFFFFF758FF0024A0
:104590000CE00120F8BDFFF734FFFAE7285DFFF7D4
:1045A000B3FFFFF74CFF002802D0641CB442F5DBD8
:1045B000FFF727FF0020F8BDF1B50024FFF7E6FE66
:1045C00000250126644FB60231463846FBF727FF27
:1045D0000220FCF75AFD31463846FBF71EFF600605
:1045E000040E5E493846FBF706FF002801D0641C24
:1045F000E4B20220FCF749FD6D1CEDB2082DE3D3B7
:104600000098002802D0FFF745FF01E0FFF75FFFA9
:104610002046F8BDF8B51D4614460F460646FFF77E
:10462000C3FE002815D07600F0B2FFF76DFFFFF74C
:1046300006FF00280FD03846FFF766FFFFF7FFFEA2
:10464000FFF7B2FE761CF0B2FFF75EFFFFF7F7FE52
:104650000DE00120F8BDFFF7D4FEFAE7012C0CD0E5
:104660000120FFF7A9FF641E2870E4B26D1C002C26
:10467000F4D1FFF7C6FE0020F8BD0020F1E770B5C9
:104680000D460446FFF790FE2046FFF73DFFFFF77B
:10469000D6FE2846FFF738FFFFF7D1FEFFF784FE6E
:1046A000641CE0B2FFF730FFFFF7C9FE0020FFF700
:1046B00083FF0446FFF7A5FE204670BDFFB581B01D
:1046C0001D46164607460024FFF76EFE3846FFF7E4
:1046D0001BFFFFF7B4FE0298FFF716FFFFF7AFFED0
:1046E000FFF762FE7F1CF8B2FFF70EFFFFF7A7FE91
:1046F000771E09E0BC4201D0012000E00020FFF756
:104700005BFF2855641CE4B2B442F3D3FFF779FE93
:10471000204605B0F0BDFFB581B01D4616460746E0
:104720000024FFF741FE3846FFF7EEFEFFF787FE55
:104730000298FFF7E9FEFFF782FE06E0285DFFF72B
:10474000E3FEFFF77CFE641CE4B2B442F6D3FFF74D
:1047500058FE0120DDE700000004004800080000CA
:1047600010B51446FFF78BFF2070012010BD07B570
:1047700002AB0122FFF7CFFF0EBDFFB581B014469B
:104780001E460D466A460A9F0198FFF7E9FF00287A
:10479000BFD0FF22601C114681400820031B9B19DB
:1047A0005B1EDA40801B874011430720FAB2001BD2
:1047B000C2406B461878084010431870C2B22946B0
:1047C0000198FFF7D4FFA4E7F8B515461C460E463E
:1047D00007466A46FFF7C4FF01206946A8400978EA
:1047E000002C01D0014300E08143CAB26846027048
:1047F00031463846FFF7BBFFF8BD000000214156A7
:10480000002901DD00207047002901DA04207047EB
:1048100001214156002901DD01207047002901DAFC
:104820000520704702214156002901DD0220704712
:10483000002901DA0620704707207047F8B59C462A
:104840000346FF4801256C00075B24182646403EBE
:10485000F787E68AA682A68D66854034668826801C
:10486000268BE6826D1CE68DEDB2A6850A2DEAD375
:10487000F34D4382018540350446C2876046A882D5
:10488000069868852E4640360798308000200146FD
:104890004A00A25E491C1018C9B20A29F8D30A219D
:1048A00000F0D8FAA082002001464A00131916220F
:1048B0009A5E491C1018C9B20A29F6D30A2100F0E1
:1048C000C9FA6085002001464A0013192C229A5E1D
:1048D000491C1018C9B20A29F6D30A2100F0BAFA05
:1048E0002880002001464A0012194223D35E491C49
:1048F0001818C9B20A29F6D30A2100F0ABFAE882E7
:10490000002001464A0012195823D35E491C18188A
:10491000C9B20A29F6D30A2100F09CFAA885002022
:1049200001464A0012196E23D35E491C1818C9B2F9
:104930000A29F6D30A2100F08DFA7080F8BD08B577
:104940000090032302226B21D020FFF716FF08BD41
:1049500008B50090022304221B21D020FFF70DFF91
:1049600008BD08B50090022304221C21D020FFF7C7
:1049700004FF08BD10B5034606226B21D020FFF7C7
:1049800023FF10BDAE4B10B50E3B01227521D02088
:10499000FFF794FEAA480E38007810BD10B5FFF757
:1049A000F1FF682801D0002010BDA6A000F05CFF38
:1049B000012010BD10B5034605226A21D020FFF763
:1049C00003FF10BD10B5034601223721D020FFF7A9
:1049D000FBFE10BD10B50220FFF7B1FF0220FFF76C
:1049E000B7FF0020FFF7BDFF0020FFF7C3FF002047
:1049F000FFF7E0FF0020FFF7E5FF10BDF8B500204E
:104A000000906B46012275216820FFF703FE92A0FB
:104A100000F02AFF68460078682807D0BFF34F8F60
:104A200097499648C860BFF34F8FFEE7FDF7E9FE50
:104A3000002850D17820FDF7FEFB002802D186A087
:104A400000F012FF7820FDF778FD002802D18DA03C
:104A500000F00AFFC820FDF727FE002802D193A02E
:104A600000F002FFFEF706FF002802D199A000F037
:104A7000FBFEA5480446FFF7C1FE0646E01CFFF713
:104A8000BDFEC5003543A01DFFF7B8FE80012843D9
:104A900080B2FEF7F8FE002802D19CA000F0E4FEF0
:104AA000FF207430FFF705FA002802D1A1A000F022
:104AB000DBFEC820FFF708F8002802D1A7A000F00D
:104AC000D3FE00F09DF80120FEF7B4FB002802D1D0
:104AD000ABA000F0C9FEF8BDF0B589B08A4C08A8BB
:104AE000243C21461E31019007AB02AA0094881F86
:104AF000FFF7D5FA2088C00559D5029800F0B2FC1E
:104B00001D26F643314600F00FFB606006900398C7
:104B100000F0A8FC314600F007FB0546A0600498B1
:104B200000F0A0FC314600F0FFFA0746E06005986F
:104B300000F098FC314600F0F7FA20610190012165
:104B4000384600F0F1FA3946009000F072FA064655
:104B500003218907284600F06CFA294600F069FA1B
:104B6000314600F05EFA7F21C90500F009FA00F035
:104B7000CCFC06460F460121069800F0D5FA2946DE
:104B800000F057FA05460199009800F052FA2946BC
:104B900000F0F6F900F0B9FC32463B4601F0FCF8B3
:104BA000804A814B00F07EFB00F0C3FC606109B0DD
:104BB000F0BD10B54121D020FFF761FD0402422174
:104BC000D020FFF75CFD201800F057FC47210906B4
:104BD000884203DD8F21C90500F023FA734900F0F4
:104BE00065FA00F092FC724A724B00F0A9FA0022BA
:104BF000714B00F057FB00F09CFC00F059FC10BD1D
:104C000010B588B002A905A8FEF74DFB072815D1FD
:104C10006846FEF711F8059800F024FC00990C4650
:104C200000F007FA00F044FC0590069800F01AFC2A
:104C3000214600F0FEF900F03BFCBFE0DFE00000A1
:104C4000060200206D70753630353020636F6E6E51
:104C50006563740D0A0000006D70755F7365745FA5
:104C600073656E736F7220636F6D706C6574652011
:104C70002E2E2E2E2E2E0D0A000000000400FA0506
:104C800000ED00E06D70755F636F6E666967757249
:104C9000655F6669666F20636F6D706C6574652013
:104CA0002E2E2E2E2E2E0D0A000000006D70755F28
:104CB0007365745F73616D706C655F72617465209C
:104CC000636F6D706C657465202E2E2E2E2E2E0D4A
:104CD0000A000000646D705F6C6F61645F6D6F74DB
:104CE000696F6E5F6472697665725F6669726D770F
:104CF00061726520636F6D706C657465202E2E2E59
:104D00002E2E2E0D0A000000B4000020646D705F8E
:104D10007365745F6F7269656E746174696F6E201C
:104D2000636F6D706C657465202E2E2E2E2E2E0DE9
:104D30000A000000646D705F656E61626C655F669D
:104D400065617475726520636F6D706C6574652044
:104D50002E2E2E2E2E2E0D0A00000000646D705F88
:104D60007365745F6669666F5F7261746520636FF7
:104D70006D706C657465202E2E2E2E2E2E0D0A0061
:104D80006D70755F7365745F646D705F737461746B
:104D90006520636F6D706C657465202E2E2E2E2E2F
:104DA0002E0D0A006666666666A64C400000AA43A1
:104DB000A4703D0AD7434240000024400690079863
:104DC00000F050FB214600F034F900F071FB079031
:104DD00005A8FEF7C1FD01A8FDF745FF68468088DC
:104DE000029941430291039941430391049941433C
:104DF00002A80491FEF710FE02A000F035FD08B0F5
:104E000010BD000073657474696E67206269617318
:104E10002073756363657366756C6C79202E2E2E16
:104E20002E2E2E0D0A00000030B50B460146002044
:104E30002022012409E00D46D5409D4205D31D46A0
:104E40009540491B2546954040191546521E002D98
:104E5000F1DC30BD70B500242546002801DA0124BC
:104E60004042002901DA01254942FFF7DDFFAC424B
:104E700000D04042002C00D0494270BDF8B500245B
:104E80002546002904DA0E46012400214042B141A2
:104E9000002B04DA1E46002352420125B34100F0E4
:104EA00064FB8C4617461E46AC4203D000254042A8
:104EB0008D41AC46002C02D0002657429E416146EF
:104EC0003A46334601B0F0BDF0B51FB486B00020BD
:104ED0000090019002900698069980B2049007987D
:104EE000090C02040014114307900027089D09983B
:104EF00006913E463C4603900398A9B20204000C7A
:104F0000039004982D0C154348430021224600F0DD
:104F10005CFBC719714110340E46402CECDB38465F
:104F2000029A00F052FB009A019B801800905941B0
:104F300002980191103002904028CCDB00980BB011
:104F4000F0BDD2B201E00270401C491EFBD2704796
:104F50000022F6E710B513460A4604461946FFF745
:104F6000F0FF204610BD30B504460020034600E0A7
:104F70005B1C934203D2E05CCD5C401BF8D030BD9B
:104F8000F8B502464A40D40F42004B0052085B0875
:104F90009A4202D20246084611464A0023D0C30D67
:104FA0004A00DDB2120EAD1A202D35DA4902012673
:104FB000490AF6058A19002C00D0524220214F1BC5
:104FC0001146B9402A411018C20D9A4221D0002C36
:104FD00017D0012D08DCDA05801AD20F8019D2070C
:104FE000DBB200F01DFBF8BDDA05801A012340009A
:104FF0001B06C01880185A428018CA0F1043490077
:1050000007E04908C2071143DA05801A80194008F1
:10501000801800F0FDFAF8BD61000122511A001B52
:10502000F7E70122D2075140AAE70122D2075040F8
:10503000A6E7024670B54A40D30FDB0740002DD0EB
:105040004A002AD0010E140E000212020919400A69
:10505000520A8418E50104465443000A120A2E0439
:105060005043A4194219200CC543AA18120C01255B
:10507000AD03521C521912047F39240400D0521C73
:10508000104301D44000491EC2B20C06C0092018CA
:10509000401C4008802A02D003E0002070BD400878
:1050A0004000002900DA0020184370BD70B50246A8
:1050B0004A40D50F40004A00ED074008520800283A
:1050C00014D0002A12D0C40DD30D41020120C00516
:1050D0005202490A520AE41A091812187D34914200
:1050E00001D3641C00E04900002C01DA002070BDEF
:1050F0000023914201D3891A034340084900002844
:10510000F7D100290AD0914202D10121C90705E057
:10511000914201D2012101E00121C943E005C018FB
:10512000401900F075FA70BD420005D04200120E21
:1051300052428A4201DB00207047C90508187047B7
:10514000F0B507460846584087B0C00F04904800A5
:105150000E46590040084908BC1A884105D2384615
:1051600031461E4617460B4602465800400810437B
:105170004CD0300D039040055900400D490D05906D
:10518000401A0290402872DA18030121000B090529
:105190000843019004980092002805D001995242DA
:1051A0000020884100920190029840210A1A01993A
:1051B000009800F00AFA05460C466B4607CB00F053
:1051C00014FAC0197141039A0E0D0023D7175640E7
:1051D0001A467A40164344D0049A002A2DD0029AE7
:1051E000012A039A15DC1205C01A914101263605E1
:1051F000001C7141D20F059ED207009301920296C6
:105200002A46234600F052FA07B0F0BD3846314630
:10521000FAE71605224A0F46B218C01AB741012113
:105220000905001C4F4100187F41114618187941AB
:10523000E20F10436D19644113E0E2076D08154356
:105240006408C2071443039A01261205C01A91414B
:105250003605001C7141CE07400830434908C0188C
:1052600051412A46234600F014FACDE7FFE704989F
:1052700001224000C117121A00238B4104983146C5
:10528000C417381AA141EEE730B40124E4076340A3
:1052900030BC55E730B40124E407614030BC4FE72F
:1052A0000000E0FFF0B51FB488B00B990998002406
:1052B00048400999C00F490049080991C0070B9956
:1052C0000090490049080B9109990898A64608439F
:1052D0001CD00B990A98084318D009980124400063
:1052E000420D4800410D099824050003000B20439E
:1052F00009900B980003000B20430B9050181C4999
:105300004018002201901446104605E00020014696
:105310000DB0F0BD032801DA034600E003239C46EC
:10532000C11A0AAE0AE05F0008ADED5B4F00F75B03
:105330007D430027AA187C41491C5B1E6145F2DDB4
:10534000410004AB5A522104120C0A43240C401CA5
:105350000828DFDB019802900099704601910090C7
:10536000059B049A0799069800F0A0F9D0E7000081
:105370000DFCFFFFF0B50C465C4085B0E40FE40780
:1053800003944C00002664085900944649080246DC
:105390000296224321D062460A431ED06200570D76
:1053A0004A000E032303550D012402462C4924050F
:1053B000781B1B0B360B4018234326436146009095
:1053C0001C46501AB44103D30098401C009002E0E0
:1053D000921800985B41002803DA0020014605B0CE
:1053E000F0BD0020012109050746864611E064460C
:1053F0001D46141BB54106D36546521BB341744686
:1054000007430C43A646CD07400849082843921895
:105410005B4105460D43EAD11046184313D0604660
:10542000194650407140084306D06046101AB341F7
:1054300006D20122002306E000220123DB0702E05E
:105440000122D2435310009874460105381C614173
:10545000029C039D0019694100F01BF9BFE70000A1
:10546000FD030000C217C10F504010B54018CA0715
:105470009623002100F0D4F810BD10B50022962329
:10548000114600F0CDF810BD0EB5C217C10F504047
:10549000CA0740180021054B0293019200910A4669
:1054A0000B4600F003F903B000BD00003304000018
:1054B000C20F410040020123400ADB05D207090E5A
:1054C000C0187F2901DA00207047962903DC962353
:1054D000591AC84001E096398840002AF4D0404269
:1054E0007047410040020122400AD205090E80188F
:1054F0007F2901DA00207047962903DC9622511A91
:10550000C8407047963988407047C20FD2074000A4
:1055100040080BD0C10D0723DB01C9184002090563
:10552000400A1143C208400711437047002001465A
:105530007047CB0FDB07490010B5490802460A4304
:1055400007D00A0D07240903E401090B121B002AE6
:1055500001DC002010BDC900440F0C43C100E0185D
:10556000D205801800F054F810BDF0B51FB40646FF
:10557000002082B005464024019100901BE0019973
:1055800022460F46304600F047F9049A059B801AE0
:10559000994110D310461946224600F016F8361AE3
:1055A0008F410197224601200021009F00F00DF855
:1055B00038184D4100902046641E0028DFDC019B16
:1055C00000982946324607B0F0BD10B5202A04DB0A
:1055D0000146203A9140002010BD914020239C1AA2
:1055E0000346E3401943904010BD10B5202A06DB66
:1055F000CB170846203A1041C1170B4306E00B4673
:105600001341D0402024A21A91400843194610BDEE
:10561000002904DA401C490001D1400840007047CD
:1056200070B40024050C05D11024000402D1002917
:1056300021D01124050E01D100020834050F01D13B
:105640000001241D850F01D18000A41C002801DB6E
:105650004000641C002908D020252E1B0D46F54073
:10566000A14000D001212943084301061B1B000A69
:10567000DB1D02D5002070BC7047DB0518188018B0
:105680000029F8DA401C4900F5D170BC4008400000
:10569000704710B5002B08DA0024401C61419218B5
:1056A0005B411A4301D14008400010BDF0B51FB462
:1056B00082B005460C0003D0084600F0E5F802E091
:1056C00000F0E2F820300246009021462846FFF71D
:1056D0007CFF049B059A04460F4618431143084378
:1056E00014D0184610431BD0009840210A1A1846BF
:1056F000059900F091F805460E46009A0599049820
:10570000FFF763FF084305D0012004E02046394637
:1057100007B0F0BD0020C11705430E432C433743AB
:1057200000990E986305401A7905E40A00220C439B
:10573000FD0A0A3002D500200146E9E701051019EB
:1057400069410C9C0D9D00196941FFF7A2FFDFE73D
:10575000FEB500231A461B1A8A4103DB00200146CE
:1057600003B0F0BD4A000D0301212D0B0905520DB8
:105770000D43D10702D100186D41521E5110FF3167
:10578000FF310131002704463E463846009701911B
:10579000024601210020090500F03EF8C3197141BD
:1057A000F818324684468E464A4161462846611AB8
:1057B000904104D36046241A954176461F46241929
:1057C00000986D41401C00903428E1DDF919304605
:1057D0007041091BA84103D20022D243134601E0C5
:1057E0000022134601980105381C7141FFF751FF53
:1057F000B6E70000064C0125064E05E0E36807CC3D
:105800002B430C3C98471034B442F7D3FAF75CFCB6
:10581000906C0008B06C000810B5202A04DB084624
:10582000203AD040002110BD0B46D340D040202468
:10583000A21A91400843194610BD70B54B005B0891
:1058400003430BD04B005C0D002633466542B34149
:10585000D417AD1AA34102DB0020014670BD12052A
:105860003018514170BD00000FB410B503A9044BAE
:10587000044A029800F0DAF810BC08BC04B01847DB
:1058800017100008C40000202021020C01D01021B4
:105890001046020A01D010460839020901D010460C
:1058A000091F820801D01046891E420801D0881EB7
:1058B0007047081A7047F8B504148BB2264682B2B6
:1058C0005E430D14104637145843360480190021E6
:1058D000794116466E4337143604801979412646BD
:1058E0006E438919F8BD30B47446641E2578641C73
:1058F000AB4200D21D46635D5B00E31830BC184725
:105900004900CA020243100000D004204A0D01D011
:1059100001221043044A490D914201D1022108435A
:10592000012800D105207047FF070000F8B50446A4
:105930004F1EC8000838211815461E4608684968D9
:105940003A4606239A4310D02A463346FFF7AAFC6C
:105950003A46D200083AA3181A687F1E5B68FFF720
:10596000EFFB06223B469343EED1022F23D0042FB8
:1059700011D0062F2FD12A463346FFF793FCE36A56
:10598000A26AFFF7DDFB2A463346FFF78BFC636A0A
:10599000226AFFF7D5FB2A463346FFF783FCE3690B
:1059A000A269FFF7CDFB2A463346FFF77BFC63690C
:1059B0002269FFF7C5FB2A463346FFF773FCE3680D
:1059C000A268FFF7BDFB2A463346FFF76BFC63680E
:1059D0002268FFF7B5FBF8BD10B50122FFF72DFFD8
:1059E00010BD10B5FFF7ACFB10BD0000034A10B5A9
:1059F00000201107FFF721FF10BD000001FDFFFF90
:105A000002E008C8121F08C1002AFAD17047704787
:105A1000002001E001C1121F002AFBD170470000E5
:105A20000149086070470000C8000020FFB58DB034
:105A30000446002506E025280AD0109A0F999047C1
:105A4000641C6D1C20780028F5D1284611B0F0BDEB
:105A500000270121484A009700E00743641C23788F
:105A60000846203B98401042F7D120782E2817D1C5
:105A7000042007436078641C2A280CD10E98641C0B
:105A800002C800910E900BE000990A225143303970
:105A90004018641C00902078014630390929F3D958
:105AA00020780028D1D0642808D0692806D075282D
:105AB0001ED0109A0F9990476D1C5BE00A200E993A
:105AC000019001C90E91002802DA40422D2102E026
:105AD000390504D52B216A461172012103E0F9072B
